{
  "_format": "hh3-artifact-1",
  "contractName": "RitualTCGCard",
  "sourceName": "contracts/RitualTCGCard.sol",
  "abi": [
    {
      "inputs": [
        {
          "internalType": "address",
          "name": "initialOwner",
          "type": "address"
        },
        {
          "internalType": "string",
          "name": "baseURI",
          "type": "string"
        }
      ],
      "stateMutability": "nonpayable",
      "type": "constructor"
    },
    {
      "inputs": [],
      "name": "ERC721EnumerableForbiddenBatchMint",
      "type": "error"
    },
    {
      "inputs": [
        {
          "internalType": "address",
          "name": "sender",
          "type": "address"
        },
        {
          "internalType": "uint256",
          "name": "tokenId",
          "type": "uint256"
        },
        {
          "internalType": "address",
          "name": "owner",
          "type": "address"
        }
      ],
      "name": "ERC721IncorrectOwner",
      "type": "error"
    },
    {
      "inputs": [
        {
          "internalType": "address",
          "name": "operator",
          "type": "address"
        },
        {
          "internalType": "uint256",
          "name": "tokenId",
          "type": "uint256"
        }
      ],
      "name": "ERC721InsufficientApproval",
      "type": "error"
    },
    {
      "inputs": [
        {
          "internalType": "address",
          "name": "approver",
          "type": "address"
        }
      ],
      "name": "ERC721InvalidApprover",
      "type": "error"
    },
    {
      "inputs": [
        {
          "internalType": "address",
          "name": "operator",
          "type": "address"
        }
      ],
      "name": "ERC721InvalidOperator",
      "type": "error"
    },
    {
      "inputs": [
        {
          "internalType": "address",
          "name": "owner",
          "type": "address"
        }
      ],
      "name": "ERC721InvalidOwner",
      "type": "error"
    },
    {
      "inputs": [
        {
          "internalType": "address",
          "name": "receiver",
          "type": "address"
        }
      ],
      "name": "ERC721InvalidReceiver",
      "type": "error"
    },
    {
      "inputs": [
        {
          "internalType": "address",
          "name": "sender",
          "type": "address"
        }
      ],
      "name": "ERC721InvalidSender",
      "type": "error"
    },
    {
      "inputs": [
        {
          "internalType": "uint256",
          "name": "tokenId",
          "type": "uint256"
        }
      ],
      "name": "ERC721NonexistentToken",
      "type": "error"
    },
    {
      "inputs": [
        {
          "internalType": "address",
          "name": "owner",
          "type": "address"
        },
        {
          "internalType": "uint256",
          "name": "index",
          "type": "uint256"
        }
      ],
      "name": "ERC721OutOfBoundsIndex",
      "type": "error"
    },
    {
      "inputs": [
        {
          "internalType": "address",
          "name": "owner",
          "type": "address"
        }
      ],
      "name": "OwnableInvalidOwner",
      "type": "error"
    },
    {
      "inputs": [
        {
          "internalType": "address",
          "name": "account",
          "type": "address"
        }
      ],
      "name": "OwnableUnauthorizedAccount",
      "type": "error"
    },
    {
      "anonymous": false,
      "inputs": [
        {
          "indexed": true,
          "internalType": "address",
          "name": "owner",
          "type": "address"
        },
        {
          "indexed": true,
          "internalType": "address",
          "name": "approved",
          "type": "address"
        },
        {
          "indexed": true,
          "internalType": "uint256",
          "name": "tokenId",
          "type": "uint256"
        }
      ],
      "name": "Approval",
      "type": "event"
    },
    {
      "anonymous": false,
      "inputs": [
        {
          "indexed": true,
          "internalType": "address",
          "name": "owner",
          "type": "address"
        },
        {
          "indexed": true,
          "internalType": "address",
          "name": "operator",
          "type": "address"
        },
        {
          "indexed": false,
          "internalType": "bool",
          "name": "approved",
          "type": "bool"
        }
      ],
      "name": "ApprovalForAll",
      "type": "event"
    },
    {
      "anonymous": false,
      "inputs": [
        {
          "indexed": true,
          "internalType": "address",
          "name": "previousOwner",
          "type": "address"
        },
        {
          "indexed": true,
          "internalType": "address",
          "name": "newOwner",
          "type": "address"
        }
      ],
      "name": "OwnershipTransferred",
      "type": "event"
    },
    {
      "anonymous": false,
      "inputs": [
        {
          "indexed": true,
          "internalType": "address",
          "name": "from",
          "type": "address"
        },
        {
          "indexed": true,
          "internalType": "address",
          "name": "to",
          "type": "address"
        },
        {
          "indexed": true,
          "internalType": "uint256",
          "name": "tokenId",
          "type": "uint256"
        }
      ],
      "name": "Transfer",
      "type": "event"
    },
    {
      "inputs": [],
      "name": "MINT_FEE",
      "outputs": [
        {
          "internalType": "uint256",
          "name": "",
          "type": "uint256"
        }
      ],
      "stateMutability": "view",
      "type": "function"
    },
    {
      "inputs": [
        {
          "internalType": "address",
          "name": "to",
          "type": "address"
        },
        {
          "internalType": "uint256",
          "name": "tokenId",
          "type": "uint256"
        }
      ],
      "name": "approve",
      "outputs": [],
      "stateMutability": "nonpayable",
      "type": "function"
    },
    {
      "inputs": [
        {
          "internalType": "address",
          "name": "owner",
          "type": "address"
        }
      ],
      "name": "balanceOf",
      "outputs": [
        {
          "internalType": "uint256",
          "name": "",
          "type": "uint256"
        }
      ],
      "stateMutability": "view",
      "type": "function"
    },
    {
      "inputs": [
        {
          "internalType": "uint256",
          "name": "",
          "type": "uint256"
        }
      ],
      "name": "cardData",
      "outputs": [
        {
          "internalType": "string",
          "name": "discordId",
          "type": "string"
        },
        {
          "internalType": "string",
          "name": "discordRole",
          "type": "string"
        },
        {
          "internalType": "string",
          "name": "discordUsername",
          "type": "string"
        }
      ],
      "stateMutability": "view",
      "type": "function"
    },
    {
      "inputs": [
        {
          "internalType": "string",
          "name": "discordId",
          "type": "string"
        }
      ],
      "name": "checkHasMinted",
      "outputs": [
        {
          "internalType": "bool",
          "name": "",
          "type": "bool"
        }
      ],
      "stateMutability": "view",
      "type": "function"
    },
    {
      "inputs": [
        {
          "internalType": "string",
          "name": "",
          "type": "string"
        }
      ],
      "name": "discordIdMinted",
      "outputs": [
        {
          "internalType": "bool",
          "name": "",
          "type": "bool"
        }
      ],
      "stateMutability": "view",
      "type": "function"
    },
    {
      "inputs": [
        {
          "internalType": "uint256",
          "name": "tokenId",
          "type": "uint256"
        }
      ],
      "name": "getApproved",
      "outputs": [
        {
          "internalType": "address",
          "name": "",
          "type": "address"
        }
      ],
      "stateMutability": "view",
      "type": "function"
    },
    {
      "inputs": [
        {
          "internalType": "address",
          "name": "owner",
          "type": "address"
        },
        {
          "internalType": "address",
          "name": "operator",
          "type": "address"
        }
      ],
      "name": "isApprovedForAll",
      "outputs": [
        {
          "internalType": "bool",
          "name": "",
          "type": "bool"
        }
      ],
      "stateMutability": "view",
      "type": "function"
    },
    {
      "inputs": [
        {
          "internalType": "address",
          "name": "to",
          "type": "address"
        },
        {
          "internalType": "string",
          "name": "discordId",
          "type": "string"
        },
        {
          "internalType": "string",
          "name": "discordRole",
          "type": "string"
        },
        {
          "internalType": "string",
          "name": "discordUsername",
          "type": "string"
        }
      ],
      "name": "mintCard",
      "outputs": [
        {
          "internalType": "uint256",
          "name": "",
          "type": "uint256"
        }
      ],
      "stateMutability": "payable",
      "type": "function"
    },
    {
      "inputs": [],
      "name": "name",
      "outputs": [
        {
          "internalType": "string",
          "name": "",
          "type": "string"
        }
      ],
      "stateMutability": "view",
      "type": "function"
    },
    {
      "inputs": [],
      "name": "owner",
      "outputs": [
        {
          "internalType": "address",
          "name": "",
          "type": "address"
        }
      ],
      "stateMutability": "view",
      "type": "function"
    },
    {
      "inputs": [
        {
          "internalType": "uint256",
          "name": "tokenId",
          "type": "uint256"
        }
      ],
      "name": "ownerOf",
      "outputs": [
        {
          "internalType": "address",
          "name": "",
          "type": "address"
        }
      ],
      "stateMutability": "view",
      "type": "function"
    },
    {
      "inputs": [],
      "name": "renounceOwnership",
      "outputs": [],
      "stateMutability": "nonpayable",
      "type": "function"
    },
    {
      "inputs": [
        {
          "internalType": "address",
          "name": "from",
          "type": "address"
        },
        {
          "internalType": "address",
          "name": "to",
          "type": "address"
        },
        {
          "internalType": "uint256",
          "name": "tokenId",
          "type": "uint256"
        }
      ],
      "name": "safeTransferFrom",
      "outputs": [],
      "stateMutability": "nonpayable",
      "type": "function"
    },
    {
      "inputs": [
        {
          "internalType": "address",
          "name": "from",
          "type": "address"
        },
        {
          "internalType": "address",
          "name": "to",
          "type": "address"
        },
        {
          "internalType": "uint256",
          "name": "tokenId",
          "type": "uint256"
        },
        {
          "internalType": "bytes",
          "name": "data",
          "type": "bytes"
        }
      ],
      "name": "safeTransferFrom",
      "outputs": [],
      "stateMutability": "nonpayable",
      "type": "function"
    },
    {
      "inputs": [
        {
          "internalType": "address",
          "name": "operator",
          "type": "address"
        },
        {
          "internalType": "bool",
          "name": "approved",
          "type": "bool"
        }
      ],
      "name": "setApprovalForAll",
      "outputs": [],
      "stateMutability": "nonpayable",
      "type": "function"
    },
    {
      "inputs": [
        {
          "internalType": "string",
          "name": "baseURI",
          "type": "string"
        }
      ],
      "name": "setBaseURI",
      "outputs": [],
      "stateMutability": "nonpayable",
      "type": "function"
    },
    {
      "inputs": [
        {
          "internalType": "bytes4",
          "name": "interfaceId",
          "type": "bytes4"
        }
      ],
      "name": "supportsInterface",
      "outputs": [
        {
          "internalType": "bool",
          "name": "",
          "type": "bool"
        }
      ],
      "stateMutability": "view",
      "type": "function"
    },
    {
      "inputs": [],
      "name": "symbol",
      "outputs": [
        {
          "internalType": "string",
          "name": "",
          "type": "string"
        }
      ],
      "stateMutability": "view",
      "type": "function"
    },
    {
      "inputs": [
        {
          "internalType": "uint256",
          "name": "index",
          "type": "uint256"
        }
      ],
      "name": "tokenByIndex",
      "outputs": [
        {
          "internalType": "uint256",
          "name": "",
          "type": "uint256"
        }
      ],
      "stateMutability": "view",
      "type": "function"
    },
    {
      "inputs": [
        {
          "internalType": "address",
          "name": "owner",
          "type": "address"
        },
        {
          "internalType": "uint256",
          "name": "index",
          "type": "uint256"
        }
      ],
      "name": "tokenOfOwnerByIndex",
      "outputs": [
        {
          "internalType": "uint256",
          "name": "",
          "type": "uint256"
        }
      ],
      "stateMutability": "view",
      "type": "function"
    },
    {
      "inputs": [
        {
          "internalType": "uint256",
          "name": "tokenId",
          "type": "uint256"
        }
      ],
      "name": "tokenURI",
      "outputs": [
        {
          "internalType": "string",
          "name": "",
          "type": "string"
        }
      ],
      "stateMutability": "view",
      "type": "function"
    },
    {
      "inputs": [],
      "name": "totalSupply",
      "outputs": [
        {
          "internalType": "uint256",
          "name": "",
          "type": "uint256"
        }
      ],
      "stateMutability": "view",
      "type": "function"
    },
    {
      "inputs": [
        {
          "internalType": "address",
          "name": "from",
          "type": "address"
        },
        {
          "internalType": "address",
          "name": "to",
          "type": "address"
        },
        {
          "internalType": "uint256",
          "name": "tokenId",
          "type": "uint256"
        }
      ],
      "name": "transferFrom",
      "outputs": [],
      "stateMutability": "nonpayable",
      "type": "function"
    },
    {
      "inputs": [
        {
          "internalType": "address",
          "name": "newOwner",
          "type": "address"
        }
      ],
      "name": "transferOwnership",
      "outputs": [],
      "stateMutability": "nonpayable",
      "type": "function"
    },
    {
      "inputs": [],
      "name": "withdraw",
      "outputs": [],
      "stateMutability": "nonpayable",
      "type": "function"
    }
  ],
  "bytecode": "0x608060405234801562000010575f80fd5b50604051620020b8380380620020b8833981016040819052620000339162000152565b816040518060400160405280601081526020016f52697475616c2054434720436172647360801b815250604051806040016040528060048152602001635254434760e01b815250815f90816200008a9190620002ca565b506001620000998282620002ca565b5050506001600160a01b038116620000ca57604051631e4fbdf760e01b81525f600482015260240160405180910390fd5b620000d581620000ed565b50600c620000e48282620002ca565b50505062000396565b600a80546001600160a01b038381166001600160a01b0319831681179093556040519116919082907f8be0079c531659141344cd1fd0a4f28419497f9722a3daafe3b4186f6b6457e0905f90a35050565b634e487b7160e01b5f52604160045260245ffd5b5f806040838503121562000164575f80fd5b82516001600160a01b03811681146200017b575f80fd5b602084810151919350906001600160401b03808211156200019a575f80fd5b818601915086601f830112620001ae575f80fd5b815181811115620001c357620001c36200013e565b604051601f8201601f19908116603f01168101908382118183101715620001ee57620001ee6200013e565b81604052828152898684870101111562000206575f80fd5b5f93505b828410156200022957848401860151818501870152928501926200020a565b5f8684830101528096505050505050509250929050565b600181811c908216806200025557607f821691505b6020821081036200027457634e487b7160e01b5f52602260045260245ffd5b50919050565b601f821115620002c557805f5260205f20601f840160051c81016020851015620002a15750805b601f840160051c820191505b81811015620002c2575f8155600101620002ad565b50505b505050565b81516001600160401b03811115620002e657620002e66200013e565b620002fe81620002f7845462000240565b846200027a565b602080601f83116001811462000334575f84156200031c5750858301515b5f19600386901b1c1916600185901b1785556200038e565b5f85815260208120601f198616915b82811015620003645788860151825594840194600190910190840162000343565b50858210156200038257878501515f19600388901b60f8161c191681555b505060018460011b0185555b505050505050565b611d1480620003a45f395ff3fe60806040526004361061017b575f3560e01c806370a08231116100cd578063b88d4fde11610087578063e7d64a1f11610062578063e7d64a1f14610425578063e985e9c51461045f578063f2fde38b1461047e578063fea9d9111461049d575f80fd5b8063b88d4fde146103cd578063c87b56dd146103ec578063d7bf81a31461040b575f80fd5b806370a0823114610337578063715018a61461035657806389a596621461036a5780638da5cb5b1461037d57806395d89b411461039a578063a22cb465146103ae575f80fd5b80632f745c59116101385780634f6ccce7116101135780634f6ccce7146102bb57806355f804b3146102da5780636352211e146102f95780636c6b1c0a14610318575f80fd5b80632f745c59146102695780633ccfd60b1461028857806342842e0e1461029c575f80fd5b806301ffc9a71461017f57806306fdde03146101b3578063081812fc146101d4578063095ea7b31461020b57806318160ddd1461022c57806323b872dd1461024a575b5f80fd5b34801561018a575f80fd5b5061019e610199366004611702565b6104cb565b60405190151581526020015b60405180910390f35b3480156101be575f80fd5b506101c76104db565b6040516101aa919061176a565b3480156101df575f80fd5b506101f36101ee36600461177c565b61056a565b6040516001600160a01b0390911681526020016101aa565b348015610216575f80fd5b5061022a6102253660046117ae565b610591565b005b348015610237575f80fd5b506008545b6040519081526020016101aa565b348015610255575f80fd5b5061022a6102643660046117d6565b6105a0565b348015610274575f80fd5b5061023c6102833660046117ae565b61062e565b348015610293575f80fd5b5061022a610691565b3480156102a7575f80fd5b5061022a6102b63660046117d6565b610780565b3480156102c6575f80fd5b5061023c6102d536600461177c565b61079f565b3480156102e5575f80fd5b5061022a6102f43660046118b4565b6107f4565b348015610304575f80fd5b506101f361031336600461177c565b610808565b348015610323575f80fd5b5061019e6103323660046118b4565b610812565b348015610342575f80fd5b5061023c6103513660046118e6565b61083c565b348015610361575f80fd5b5061022a610881565b61023c6103783660046118ff565b610894565b348015610388575f80fd5b50600a546001600160a01b03166101f3565b3480156103a5575f80fd5b506101c7610a01565b3480156103b9575f80fd5b5061022a6103c8366004611992565b610a10565b3480156103d8575f80fd5b5061022a6103e73660046119cb565b610a1b565b3480156103f7575f80fd5b506101c761040636600461177c565b610a33565b348015610416575f80fd5b5061023c662386f26fc1000081565b348015610430575f80fd5b5061019e61043f3660046118b4565b8051602081830181018051600d8252928201919093012091525460ff1681565b34801561046a575f80fd5b5061019e610479366004611a36565b610a98565b348015610489575f80fd5b5061022a6104983660046118e6565b610ac5565b3480156104a8575f80fd5b506104bc6104b736600461177c565b610b02565b6040516101aa93929190611a67565b5f6104d582610cb5565b92915050565b60605f80546104e990611aa9565b80601f016020809104026020016040519081016040528092919081815260200182805461051590611aa9565b80156105605780601f1061053757610100808354040283529160200191610560565b820191905f5260205f20905b81548152906001019060200180831161054357829003601f168201915b5050505050905090565b5f61057482610cd9565b505f828152600460205260409020546001600160a01b03166104d5565b61059c828233610d11565b5050565b6001600160a01b0382166105ce57604051633250574960e11b81525f60048201526024015b60405180910390fd5b5f6105da838333610d1e565b9050836001600160a01b0316816001600160a01b031614610628576040516364283d7b60e01b81526001600160a01b03808616600483015260248201849052821660448201526064016105c5565b50505050565b5f6106388361083c565b82106106695760405163295f44f760e21b81526001600160a01b0384166004820152602481018390526044016105c5565b506001600160a01b03919091165f908152600660209081526040808320938352929052205490565b610699610d32565b47806106de5760405162461bcd60e51b81526020600482015260146024820152734e6f2066756e647320746f20776974686472617760601b60448201526064016105c5565b5f6106f1600a546001600160a01b031690565b6001600160a01b0316826040515f6040518083038185875af1925050503d805f8114610738576040519150601f19603f3d011682016040523d82523d5f602084013e61073d565b606091505b505090508061059c5760405162461bcd60e51b815260206004820152600f60248201526e15da5d1a191c985dc819985a5b1959608a1b60448201526064016105c5565b61079a83838360405180602001604052805f815250610a1b565b505050565b5f6107a960085490565b82106107d15760405163295f44f760e21b81525f6004820152602481018390526044016105c5565b600882815481106107e4576107e4611ae1565b905f5260205f2001549050919050565b6107fc610d32565b600c61059c8282611b39565b5f6104d582610cd9565b5f600d826040516108239190611bf5565b9081526040519081900360200190205460ff1692915050565b5f6001600160a01b038216610866576040516322718ad960e21b81525f60048201526024016105c5565b506001600160a01b03165f9081526003602052604090205490565b610889610d32565b6108925f610d5f565b565b5f662386f26fc1000034146108e05760405162461bcd60e51b8152602060048201526012602482015271496e636f7272656374206d696e742066656560701b60448201526064016105c5565b600d846040516108f09190611bf5565b9081526040519081900360200190205460ff16156109415760405162461bcd60e51b815260206004820152600e60248201526d105b1c9958591e481b5a5b9d195960921b60448201526064016105c5565b600b80545f918261095183611c24565b9190505590506109618682610db0565b6040805160608101825286815260208082018790528183018690525f848152600e90915291909120815181906109979082611b39565b50602082015160018201906109ac9082611b39565b50604082015160028201906109c19082611b39565b509050506001600d866040516109d79190611bf5565b908152604051908190036020019020805491151560ff199092169190911790559050949350505050565b6060600180546104e990611aa9565b61059c338383610dc9565b610a268484846105a0565b6106283385858585610e90565b6060610a3e82610cd9565b505f610a48610fb8565b90505f815111610a665760405180602001604052805f815250610a91565b80610a7084610fc7565b604051602001610a81929190611c3c565b6040516020818303038152906040525b9392505050565b6001600160a01b039182165f90815260056020908152604080832093909416825291909152205460ff1690565b610acd610d32565b6001600160a01b038116610af657604051631e4fbdf760e01b81525f60048201526024016105c5565b610aff81610d5f565b50565b600e6020525f9081526040902080548190610b1c90611aa9565b80601f0160208091040260200160405190810160405280929190818152602001828054610b4890611aa9565b8015610b935780601f10610b6a57610100808354040283529160200191610b93565b820191905f5260205f20905b815481529060010190602001808311610b7657829003601f168201915b505050505090806001018054610ba890611aa9565b80601f0160208091040260200160405190810160405280929190818152602001828054610bd490611aa9565b8015610c1f5780601f10610bf657610100808354040283529160200191610c1f565b820191905f5260205f20905b815481529060010190602001808311610c0257829003601f168201915b505050505090806002018054610c3490611aa9565b80601f0160208091040260200160405190810160405280929190818152602001828054610c6090611aa9565b8015610cab5780601f10610c8257610100808354040283529160200191610cab565b820191905f5260205f20905b815481529060010190602001808311610c8e57829003601f168201915b5050505050905083565b5f6001600160e01b0319821663780e9d6360e01b14806104d557506104d582611057565b5f818152600260205260408120546001600160a01b0316806104d557604051637e27328960e01b8152600481018490526024016105c5565b61079a83838360016110a6565b5f610d2a8484846111aa565b949350505050565b600a546001600160a01b031633146108925760405163118cdaa760e01b81523360048201526024016105c5565b600a80546001600160a01b038381166001600160a01b0319831681179093556040519116919082907f8be0079c531659141344cd1fd0a4f28419497f9722a3daafe3b4186f6b6457e0905f90a35050565b61059c828260405180602001604052805f815250611275565b6001600160a01b038316610df25760405163a9fbf51f60e01b81525f60048201526024016105c5565b6001600160a01b038216610e2457604051630b61174360e31b81526001600160a01b03831660048201526024016105c5565b6001600160a01b038381165f81815260056020908152604080832094871680845294825291829020805460ff191686151590811790915591519182527f17307eab39ab6107e8899845ad3d59bd9653f200f220920489ca2b5937696c31910160405180910390a3505050565b6001600160a01b0383163b15610fb157604051630a85bd0160e11b81526001600160a01b0384169063150b7a0290610ed2908890889087908790600401611c6a565b6020604051808303815f875af1925050508015610f0c575060408051601f3d908101601f19168201909252610f0991810190611c9c565b60015b610f73573d808015610f39576040519150601f19603f3d011682016040523d82523d5f602084013e610f3e565b606091505b5080515f03610f6b57604051633250574960e11b81526001600160a01b03851660048201526024016105c5565b805160208201fd5b6001600160e01b03198116630a85bd0160e11b14610faf57604051633250574960e11b81526001600160a01b03851660048201526024016105c5565b505b5050505050565b6060600c80546104e990611aa9565b60605f610fd38361128c565b60010190505f8167ffffffffffffffff811115610ff257610ff261180f565b6040519080825280601f01601f19166020018201604052801561101c576020820181803683370190505b5090508181016020015b5f19016f181899199a1a9b1b9c1cb0b131b232b360811b600a86061a8153600a850494508461102657509392505050565b5f6001600160e01b031982166380ac58cd60e01b148061108757506001600160e01b03198216635b5e139f60e01b145b806104d557506301ffc9a760e01b6001600160e01b03198316146104d5565b80806110ba57506001600160a01b03821615155b1561117b575f6110c984610cd9565b90506001600160a01b038316158015906110f55750826001600160a01b0316816001600160a01b031614155b801561110857506111068184610a98565b155b156111315760405163a9fbf51f60e01b81526001600160a01b03841660048201526024016105c5565b81156111795783856001600160a01b0316826001600160a01b03167f8c5be1e5ebec7d5bd14f71427d1e84f3dd0314c0f7b2291e5b200ac8c7c3b92560405160405180910390a45b505b50505f90815260046020526040902080546001600160a01b0319166001600160a01b0392909216919091179055565b5f806111b7858585611363565b90506001600160a01b0381166112135761120e84600880545f838152600960205260408120829055600182018355919091527ff3f7a9fe364faab93b216da50a3214154f22a0a2b415b23a84c8169e8b636ee30155565b611236565b846001600160a01b0316816001600160a01b031614611236576112368185611455565b6001600160a01b0385166112525761124d846114d2565b610d2a565b846001600160a01b0316816001600160a01b031614610d2a57610d2a8585611579565b61127f83836115c7565b61079a335f858585610e90565b5f8072184f03e93ff9f4daa797ed6e38ed64bf6a1f0160401b83106112ca5772184f03e93ff9f4daa797ed6e38ed64bf6a1f0160401b830492506040015b6d04ee2d6d415b85acef810000000083106112f6576d04ee2d6d415b85acef8100000000830492506020015b662386f26fc10000831061131457662386f26fc10000830492506010015b6305f5e100831061132c576305f5e100830492506008015b612710831061134057612710830492506004015b60648310611352576064830492506002015b600a83106104d55760010192915050565b5f828152600260205260408120546001600160a01b039081169083161561138f5761138f818486611628565b6001600160a01b038116156113c9576113aa5f855f806110a6565b6001600160a01b0381165f90815260036020526040902080545f190190555b6001600160a01b038516156113f7576001600160a01b0385165f908152600360205260409020805460010190555b5f8481526002602052604080822080546001600160a01b0319166001600160a01b0389811691821790925591518793918516917fddf252ad1be2c89b69c2b068fc378daa952ba7f163c4a11628f55a4df523b3ef91a4949350505050565b5f61145f8361083c565b5f838152600760209081526040808320546001600160a01b03881684526006909252909120919250908183146114b4575f83815260208281526040808320548584528184208190558352600790915290208290555b5f938452600760209081526040808620869055938552525081205550565b6008545f906114e390600190611cb7565b5f838152600960205260408120546008805493945090928490811061150a5761150a611ae1565b905f5260205f2001549050806008838154811061152957611529611ae1565b5f91825260208083209091019290925582815260099091526040808220849055858252812055600880548061156057611560611cca565b600190038181905f5260205f20015f9055905550505050565b5f60016115858461083c565b61158f9190611cb7565b6001600160a01b039093165f908152600660209081526040808320868452825280832085905593825260079052919091209190915550565b6001600160a01b0382166115f057604051633250574960e11b81525f60048201526024016105c5565b5f6115fc83835f610d1e565b90506001600160a01b0381161561079a576040516339e3563760e11b81525f60048201526024016105c5565b61163383838361168c565b61079a576001600160a01b03831661166157604051637e27328960e01b8152600481018290526024016105c5565b60405163177e802f60e01b81526001600160a01b0383166004820152602481018290526044016105c5565b5f6001600160a01b03831615801590610d2a5750826001600160a01b0316846001600160a01b031614806116c557506116c58484610a98565b80610d2a5750505f908152600460205260409020546001600160a01b03908116911614919050565b6001600160e01b031981168114610aff575f80fd5b5f60208284031215611712575f80fd5b8135610a91816116ed565b5f5b8381101561173757818101518382015260200161171f565b50505f910152565b5f815180845261175681602086016020860161171d565b601f01601f19169290920160200192915050565b602081525f610a91602083018461173f565b5f6020828403121561178c575f80fd5b5035919050565b80356001600160a01b03811681146117a9575f80fd5b919050565b5f80604083850312156117bf575f80fd5b6117c883611793565b946020939093013593505050565b5f805f606084860312156117e8575f80fd5b6117f184611793565b92506117ff60208501611793565b9150604084013590509250925092565b634e487b7160e01b5f52604160045260245ffd5b5f67ffffffffffffffff8084111561183d5761183d61180f565b604051601f8501601f19908116603f011681019082821181831017156118655761186561180f565b8160405280935085815286868601111561187d575f80fd5b858560208301375f602087830101525050509392505050565b5f82601f8301126118a5575f80fd5b610a9183833560208501611823565b5f602082840312156118c4575f80fd5b813567ffffffffffffffff8111156118da575f80fd5b610d2a84828501611896565b5f602082840312156118f6575f80fd5b610a9182611793565b5f805f8060808587031215611912575f80fd5b61191b85611793565b9350602085013567ffffffffffffffff80821115611937575f80fd5b61194388838901611896565b94506040870135915080821115611958575f80fd5b61196488838901611896565b93506060870135915080821115611979575f80fd5b5061198687828801611896565b91505092959194509250565b5f80604083850312156119a3575f80fd5b6119ac83611793565b9150602083013580151581146119c0575f80fd5b809150509250929050565b5f805f80608085870312156119de575f80fd5b6119e785611793565b93506119f560208601611793565b925060408501359150606085013567ffffffffffffffff811115611a17575f80fd5b8501601f81018713611a27575f80fd5b61198687823560208401611823565b5f8060408385031215611a47575f80fd5b611a5083611793565b9150611a5e60208401611793565b90509250929050565b606081525f611a79606083018661173f565b8281036020840152611a8b818661173f565b90508281036040840152611a9f818561173f565b9695505050505050565b600181811c90821680611abd57607f821691505b602082108103611adb57634e487b7160e01b5f52602260045260245ffd5b50919050565b634e487b7160e01b5f52603260045260245ffd5b601f82111561079a57805f5260205f20601f840160051c81016020851015611b1a5750805b601f840160051c820191505b81811015610fb1575f8155600101611b26565b815167ffffffffffffffff811115611b5357611b5361180f565b611b6781611b618454611aa9565b84611af5565b602080601f831160018114611b9a575f8415611b835750858301515b5f19600386901b1c1916600185901b178555610faf565b5f85815260208120601f198616915b82811015611bc857888601518255948401946001909101908401611ba9565b5085821015611be557878501515f19600388901b60f8161c191681555b5050505050600190811b01905550565b5f8251611c0681846020870161171d565b9190910192915050565b634e487b7160e01b5f52601160045260245ffd5b5f60018201611c3557611c35611c10565b5060010190565b5f8351611c4d81846020880161171d565b835190830190611c6181836020880161171d565b01949350505050565b6001600160a01b03858116825284166020820152604081018390526080606082018190525f90611a9f9083018461173f565b5f60208284031215611cac575f80fd5b8151610a91816116ed565b818103818111156104d5576104d5611c10565b634e487b7160e01b5f52603160045260245ffdfea264697066735822122092a406ca44e48211ae843c8bb0751a6ad4cb45fca5c091fcf0f4b956ce528ffe64736f6c63430008180033",
  "linkReferences": {},
  "deployedLinkReferences": {},
  "immutableReferences": {},
  "inputSourceName": "project/contracts/RitualTCGCard.sol",
  "buildInfoId": "solc-0_8_24-5ecffde7fb81b77c012268f22068e732f28b8cf3"
}