{
  "_format": "hh3-artifact-1",
  "contractName": "RitualTCGMarketplace",
  "sourceName": "contracts/RitualTCGMarketplace.sol",
  "abi": [
    {
      "inputs": [
        {
          "internalType": "address",
          "name": "initialOwner",
          "type": "address"
        },
        {
          "internalType": "address",
          "name": "_feeReceiver",
          "type": "address"
        }
      ],
      "stateMutability": "nonpayable",
      "type": "constructor"
    },
    {
      "anonymous": false,
      "inputs": [
        {
          "indexed": true,
          "internalType": "uint256",
          "name": "listingId",
          "type": "uint256"
        },
        {
          "indexed": true,
          "internalType": "address",
          "name": "nftAddress",
          "type": "address"
        },
        {
          "indexed": true,
          "internalType": "uint256",
          "name": "tokenId",
          "type": "uint256"
        },
        {
          "indexed": false,
          "internalType": "address",
          "name": "seller",
          "type": "address"
        },
        {
          "indexed": false,
          "internalType": "uint256",
          "name": "price",
          "type": "uint256"
        }
      ],
      "name": "ItemListed",
      "type": "event"
    },
    {
      "anonymous": false,
      "inputs": [
        {
          "indexed": true,
          "internalType": "uint256",
          "name": "listingId",
          "type": "uint256"
        },
        {
          "indexed": true,
          "internalType": "address",
          "name": "nftAddress",
          "type": "address"
        },
        {
          "indexed": true,
          "internalType": "uint256",
          "name": "tokenId",
          "type": "uint256"
        },
        {
          "indexed": false,
          "internalType": "address",
          "name": "seller",
          "type": "address"
        },
        {
          "indexed": false,
          "internalType": "address",
          "name": "buyer",
          "type": "address"
        },
        {
          "indexed": false,
          "internalType": "uint256",
          "name": "price",
          "type": "uint256"
        }
      ],
      "name": "ItemSold",
      "type": "event"
    },
    {
      "anonymous": false,
      "inputs": [
        {
          "indexed": true,
          "internalType": "address",
          "name": "nftAddress",
          "type": "address"
        },
        {
          "indexed": true,
          "internalType": "uint256",
          "name": "tokenId",
          "type": "uint256"
        },
        {
          "indexed": false,
          "internalType": "address",
          "name": "seller",
          "type": "address"
        },
        {
          "indexed": false,
          "internalType": "address",
          "name": "offerer",
          "type": "address"
        },
        {
          "indexed": false,
          "internalType": "uint256",
          "name": "amount",
          "type": "uint256"
        }
      ],
      "name": "OfferAccepted",
      "type": "event"
    },
    {
      "anonymous": false,
      "inputs": [
        {
          "indexed": true,
          "internalType": "address",
          "name": "nftAddress",
          "type": "address"
        },
        {
          "indexed": true,
          "internalType": "uint256",
          "name": "tokenId",
          "type": "uint256"
        },
        {
          "indexed": false,
          "internalType": "address",
          "name": "offerer",
          "type": "address"
        }
      ],
      "name": "OfferCancelled",
      "type": "event"
    },
    {
      "anonymous": false,
      "inputs": [
        {
          "indexed": true,
          "internalType": "address",
          "name": "nftAddress",
          "type": "address"
        },
        {
          "indexed": true,
          "internalType": "uint256",
          "name": "tokenId",
          "type": "uint256"
        },
        {
          "indexed": false,
          "internalType": "address",
          "name": "offerer",
          "type": "address"
        },
        {
          "indexed": false,
          "internalType": "uint256",
          "name": "amount",
          "type": "uint256"
        }
      ],
      "name": "OfferMade",
      "type": "event"
    },
    {
      "inputs": [],
      "name": "PLATFORM_FEE_PERCENT",
      "outputs": [
        {
          "internalType": "uint256",
          "name": "",
          "type": "uint256"
        }
      ],
      "stateMutability": "view",
      "type": "function"
    },
    {
      "inputs": [
        {
          "internalType": "address",
          "name": "nftAddress",
          "type": "address"
        },
        {
          "internalType": "uint256",
          "name": "tokenId",
          "type": "uint256"
        },
        {
          "internalType": "address",
          "name": "offerer",
          "type": "address"
        }
      ],
      "name": "acceptOffer",
      "outputs": [],
      "stateMutability": "nonpayable",
      "type": "function"
    },
    {
      "inputs": [
        {
          "internalType": "address",
          "name": "",
          "type": "address"
        },
        {
          "internalType": "uint256",
          "name": "",
          "type": "uint256"
        }
      ],
      "name": "activeListings",
      "outputs": [
        {
          "internalType": "uint256",
          "name": "",
          "type": "uint256"
        }
      ],
      "stateMutability": "view",
      "type": "function"
    },
    {
      "inputs": [
        {
          "internalType": "uint256",
          "name": "listingId",
          "type": "uint256"
        }
      ],
      "name": "buyItem",
      "outputs": [],
      "stateMutability": "payable",
      "type": "function"
    },
    {
      "inputs": [
        {
          "internalType": "address",
          "name": "nftAddress",
          "type": "address"
        },
        {
          "internalType": "uint256",
          "name": "tokenId",
          "type": "uint256"
        }
      ],
      "name": "cancelOffer",
      "outputs": [],
      "stateMutability": "nonpayable",
      "type": "function"
    },
    {
      "inputs": [],
      "name": "feeReceiver",
      "outputs": [
        {
          "internalType": "address",
          "name": "",
          "type": "address"
        }
      ],
      "stateMutability": "view",
      "type": "function"
    },
    {
      "inputs": [
        {
          "internalType": "address",
          "name": "nftAddress",
          "type": "address"
        },
        {
          "internalType": "uint256",
          "name": "tokenId",
          "type": "uint256"
        }
      ],
      "name": "getOfferers",
      "outputs": [
        {
          "internalType": "address[]",
          "name": "",
          "type": "address[]"
        }
      ],
      "stateMutability": "view",
      "type": "function"
    },
    {
      "inputs": [
        {
          "internalType": "address",
          "name": "nftAddress",
          "type": "address"
        },
        {
          "internalType": "uint256",
          "name": "tokenId",
          "type": "uint256"
        },
        {
          "internalType": "uint256",
          "name": "price",
          "type": "uint256"
        }
      ],
      "name": "listItem",
      "outputs": [],
      "stateMutability": "nonpayable",
      "type": "function"
    },
    {
      "inputs": [
        {
          "internalType": "uint256",
          "name": "",
          "type": "uint256"
        }
      ],
      "name": "listings",
      "outputs": [
        {
          "internalType": "uint256",
          "name": "listingId",
          "type": "uint256"
        },
        {
          "internalType": "address",
          "name": "nftAddress",
          "type": "address"
        },
        {
          "internalType": "uint256",
          "name": "tokenId",
          "type": "uint256"
        },
        {
          "internalType": "address payable",
          "name": "seller",
          "type": "address"
        },
        {
          "internalType": "uint256",
          "name": "price",
          "type": "uint256"
        },
        {
          "internalType": "bool",
          "name": "active",
          "type": "bool"
        }
      ],
      "stateMutability": "view",
      "type": "function"
    },
    {
      "inputs": [
        {
          "internalType": "address",
          "name": "nftAddress",
          "type": "address"
        },
        {
          "internalType": "uint256",
          "name": "tokenId",
          "type": "uint256"
        }
      ],
      "name": "makeOffer",
      "outputs": [],
      "stateMutability": "payable",
      "type": "function"
    },
    {
      "inputs": [
        {
          "internalType": "address",
          "name": "",
          "type": "address"
        },
        {
          "internalType": "uint256",
          "name": "",
          "type": "uint256"
        },
        {
          "internalType": "address",
          "name": "",
          "type": "address"
        }
      ],
      "name": "offers",
      "outputs": [
        {
          "internalType": "address payable",
          "name": "offerer",
          "type": "address"
        },
        {
          "internalType": "uint256",
          "name": "amount",
          "type": "uint256"
        },
        {
          "internalType": "bool",
          "name": "active",
          "type": "bool"
        }
      ],
      "stateMutability": "view",
      "type": "function"
    },
    {
      "inputs": [],
      "name": "owner",
      "outputs": [
        {
          "internalType": "address",
          "name": "",
          "type": "address"
        }
      ],
      "stateMutability": "view",
      "type": "function"
    },
    {
      "inputs": [
        {
          "internalType": "address",
          "name": "",
          "type": "address"
        },
        {
          "internalType": "uint256",
          "name": "",
          "type": "uint256"
        },
        {
          "internalType": "uint256",
          "name": "",
          "type": "uint256"
        }
      ],
      "name": "tokenOfferers",
      "outputs": [
        {
          "internalType": "address",
          "name": "",
          "type": "address"
        }
      ],
      "stateMutability": "view",
      "type": "function"
    }
  ],
  "bytecode": "0x608060405234801561000f575f80fd5b506040516112de3803806112de83398101604081905261002e91610079565b5f80546001600160a01b039384166001600160a01b031991821617909155600180549290931691161790556100aa565b80516001600160a01b0381168114610074575f80fd5b919050565b5f806040838503121561008a575f80fd5b6100938361005e565b91506100a16020840161005e565b90509250929050565b611227806100b75f395ff3fe6080604052600436106100bf575f3560e01c8063b2a4706e1161007c578063de74e57b11610057578063de74e57b1461024f578063e7fb74c7146102ea578063f37dcc54146102fd578063f4b1250814610329575f80fd5b8063b2a4706e1461019e578063b3f00674146101b1578063d3f494cc146101d0575f80fd5b8063058a56ac146100c35780633bbb2806146100e4578063560d52d41461010357806389bfd38f1461012a5780638da5cb5b14610149578063a1e469951461017f575b5f80fd5b3480156100ce575f80fd5b506100e26100dd36600461103d565b61035f565b005b3480156100ef575f80fd5b506100e26100fe366004611067565b6104b6565b34801561010e575f80fd5b50610117600581565b6040519081526020015b60405180910390f35b348015610135575f80fd5b506100e26101443660046110a6565b610755565b348015610154575f80fd5b505f54610167906001600160a01b031681565b6040516001600160a01b039091168152602001610121565b34801561018a575f80fd5b506101676101993660046110a6565b6109f8565b6100e26101ac36600461103d565b610a37565b3480156101bc575f80fd5b50600154610167906001600160a01b031681565b3480156101db575f80fd5b506102286101ea366004611067565b600560209081525f93845260408085208252928452828420905282529020805460018201546002909201546001600160a01b03909116919060ff1683565b604080516001600160a01b0390941684526020840192909252151590820152606001610121565b34801561025a575f80fd5b506102af6102693660046110d8565b600360208190525f918252604090912080546001820154600283015493830154600484015460059094015492946001600160a01b03928316949093929091169160ff1686565b604080519687526001600160a01b039586166020880152860193909352921660608401526080830191909152151560a082015260c001610121565b6100e26102f83660046110d8565b610ce5565b348015610308575f80fd5b5061031c61031736600461103d565b610df6565b60405161012191906110ef565b348015610334575f80fd5b5061011761034336600461103d565b600460209081525f928352604080842090915290825290205481565b6001600160a01b0382165f90815260056020908152604080832084845282528083203384529091529020600281015460ff166103d45760405162461bcd60e51b815260206004820152600f60248201526e27379030b1ba34bb329037b33332b960891b60448201526064015b60405180910390fd5b60018101805460028301805460ff191690555f91829055604051909190339083908381818185875af1925050503d805f811461042b576040519150601f19603f3d011682016040523d82523d5f602084013e610430565b606091505b505090508061046f5760405162461bcd60e51b815260206004820152600b60248201526a1499599d5b990819985a5b60aa1b60448201526064016103cb565b60405133815284906001600160a01b038716907fe976e867b83e81198668862497521f192d6d5fca43b250029f56a510d4cac6d29060200160405180910390a35050505050565b6040516331a9108f60e11b81526004810183905233906001600160a01b03851690636352211e90602401602060405180830381865afa1580156104fb573d5f803e3d5ffd5b505050506040513d601f19601f8201168201806040525081019061051f919061113b565b6001600160a01b0316146105615760405162461bcd60e51b81526020600482015260096024820152682737ba1037bbb732b960b91b60448201526064016103cb565b60405163e985e9c560e01b81523360048201523060248201526001600160a01b0384169063e985e9c590604401602060405180830381865afa1580156105a9573d5f803e3d5ffd5b505050506040513d601f19601f820116820180604052508101906105cd919061115d565b6106085760405162461bcd60e51b815260206004820152600c60248201526b139bdd08185c1c1c9bdd995960a21b60448201526064016103cb565b6001600160a01b038084165f9081526005602090815260408083208684528252808320938516835292905220600281015460ff1661067a5760405162461bcd60e51b815260206004820152600f60248201526e27379030b1ba34bb329037b33332b960891b60448201526064016103cb565b60018101805460028301805460ff191690555f918290556001600160a01b03861682526004602090815260408084208785529091529091205480156106f1575f818152600360209081526040808320600501805460ff191690556001600160a01b0389168352600482528083208884529091528120555b6106fe8686338786610e73565b604080513381526001600160a01b03868116602083015291810184905286918816907f47b97c7cbd7d3ec9d5cc511f0b698f7fe0b891454fc558e49eb656c216b445979060600160405180910390a3505050505050565b5f811161078c5760405162461bcd60e51b8152602060048201526005602482015264507269636560d81b60448201526064016103cb565b6040516331a9108f60e11b81526004810183905233906001600160a01b03851690636352211e90602401602060405180830381865afa1580156107d1573d5f803e3d5ffd5b505050506040513d601f19601f820116820180604052508101906107f5919061113b565b6001600160a01b0316146108375760405162461bcd60e51b81526020600482015260096024820152682737ba1037bbb732b960b91b60448201526064016103cb565b60405163e985e9c560e01b81523360048201523060248201526001600160a01b0384169063e985e9c590604401602060405180830381865afa15801561087f573d5f803e3d5ffd5b505050506040513d601f19601f820116820180604052508101906108a3919061115d565b6108de5760405162461bcd60e51b815260206004820152600c60248201526b139bdd08185c1c1c9bdd995960a21b60448201526064016103cb565b60028054905f6108ed83611190565b9091555050600280546040805160c0810182528281526001600160a01b0387811660208084018281528486018a81523360608701818152608088018c8152600160a08a018181525f8d81526003808a528d82209c518d559751928c018054938c166001600160a01b031994851617905595519d8b019d909d5591519489018054959098169490911693909317909555905160048087019190915597516005909501805495151560ff19909616959095179094558184529586528383208884528652918390208490558251908152938401859052919285929184917ffc03b4e2884c77019bbed322825d5474a29f5a432ee06b79726bb2b5b707fae5910160405180910390a450505050565b6006602052825f5260405f20602052815f5260405f208181548110610a1b575f80fd5b5f918252602090912001546001600160a01b0316925083915050565b5f3411610a7a5760405162461bcd60e51b815260206004820152601160248201527004f66666572206d757374206265203e203607c1b60448201526064016103cb565b6040516331a9108f60e11b81526004810182905233906001600160a01b03841690636352211e90602401602060405180830381865afa158015610abf573d5f803e3d5ffd5b505050506040513d601f19601f82011682018060405250810190610ae3919061113b565b6001600160a01b031603610b2e5760405162461bcd60e51b815260206004820152601260248201527127bbb732b91031b0b73737ba1037b33332b960711b60448201526064016103cb565b6001600160a01b0382165f90815260056020908152604080832084845282528083203384529091529020600281015460ff1615610bf15760018101546040515f9133918381818185875af1925050503d805f8114610ba7576040519150601f19603f3d011682016040523d82523d5f602084013e610bac565b606091505b5050905080610beb5760405162461bcd60e51b815260206004820152600b60248201526a1499599d5b990819985a5b60aa1b60448201526064016103cb565b50610c31565b6001600160a01b0383165f90815260066020908152604080832085845282528220805460018101825590835291200180546001600160a01b031916331790555b604080516060810182523380825234602080840182815260018587018181526001600160a01b038b81165f818152600587528a81208d825287528a812089825287528a9020985189546001600160a01b0319169216919091178855925191870191909155516002909501805460ff191695151595909517909455845192835282015284927f7ab51a03638d3bfd74576317d23a61865ab7ee43ce9ee3a44044594da5c6d655910160405180910390a3505050565b5f818152600360205260409020600581015460ff168015610d095750806004015434145b610d3f5760405162461bcd60e51b8152602060048201526007602482015266125b9d985b1a5960ca1b60448201526064016103cb565b60058101805460ff191690556001810180546001600160a01b039081165f90815260046020908152604080832060028701805485529252822091909155915491546003840154610d9493831692163334610e73565b600281015460018201546003830154604080516001600160a01b03928316815233602082015234818301529051919092169185917fda3037e3cf7786efa975ab8c48d5e5f239cb6dc1d00cee1abce948356555b97b9181900360600190a45050565b6001600160a01b0382165f908152600660209081526040808320848452825291829020805483518184028101840190945280845260609392830182828015610e6557602002820191905f5260205f20905b81546001600160a01b03168152600190910190602001808311610e47575b505050505090505b92915050565b5f6064610e816005846111a8565b610e8b91906111bf565b90505f610e9882846111de565b90505f856001600160a01b0316826040515f6040518083038185875af1925050503d805f8114610ee3576040519150601f19603f3d011682016040523d82523d5f602084013e610ee8565b606091505b5050905080610f245760405162461bcd60e51b815260206004820152600860248201526714185e4819985a5b60c21b60448201526064016103cb565b8215610fb7576001546040515f916001600160a01b03169085908381818185875af1925050503d805f8114610f74576040519150601f19603f3d011682016040523d82523d5f602084013e610f79565b606091505b5050905080610fb55760405162461bcd60e51b81526020600482015260086024820152671199594819985a5b60c21b60448201526064016103cb565b505b604051632142170760e11b81526001600160a01b0387811660048301528681166024830152604482018990528916906342842e0e906064015f604051808303815f87803b158015611006575f80fd5b505af1158015611018573d5f803e3d5ffd5b505050505050505050505050565b6001600160a01b038116811461103a575f80fd5b50565b5f806040838503121561104e575f80fd5b823561105981611026565b946020939093013593505050565b5f805f60608486031215611079575f80fd5b833561108481611026565b925060208401359150604084013561109b81611026565b809150509250925092565b5f805f606084860312156110b8575f80fd5b83356110c381611026565b95602085013595506040909401359392505050565b5f602082840312156110e8575f80fd5b5035919050565b602080825282518282018190525f9190848201906040850190845b8181101561112f5783516001600160a01b03168352928401929184019160010161110a565b50909695505050505050565b5f6020828403121561114b575f80fd5b815161115681611026565b9392505050565b5f6020828403121561116d575f80fd5b81518015158114611156575f80fd5b634e487b7160e01b5f52601160045260245ffd5b5f600182016111a1576111a161117c565b5060010190565b8082028115828204841417610e6d57610e6d61117c565b5f826111d957634e487b7160e01b5f52601260045260245ffd5b500490565b81810381811115610e6d57610e6d61117c56fea2646970667358221220c94e999cf76e3b596046cd2feda560b4fd79ae92d0a223348d8091b50b1d650864736f6c63430008180033",
  "linkReferences": {},
  "deployedLinkReferences": {},
  "immutableReferences": {},
  "inputSourceName": "project/contracts/RitualTCGMarketplace.sol",
  "buildInfoId": "solc-0_8_24-86f8fd634b7997e0eef65954984705731dd2e49d"
}