{
  "_format": "hh3-artifact-1",
  "contractName": "RitualTCGMarketplace",
  "sourceName": "contracts/RitualTCGMarketplace.sol",
  "abi": [
    {
      "inputs": [
        {
          "internalType": "address",
          "name": "initialOwner",
          "type": "address"
        },
        {
          "internalType": "address",
          "name": "_feeReceiver",
          "type": "address"
        }
      ],
      "stateMutability": "nonpayable",
      "type": "constructor"
    },
    {
      "anonymous": false,
      "inputs": [
        {
          "indexed": true,
          "internalType": "uint256",
          "name": "listingId",
          "type": "uint256"
        },
        {
          "indexed": true,
          "internalType": "address",
          "name": "nftAddress",
          "type": "address"
        },
        {
          "indexed": true,
          "internalType": "uint256",
          "name": "tokenId",
          "type": "uint256"
        },
        {
          "indexed": false,
          "internalType": "address",
          "name": "seller",
          "type": "address"
        },
        {
          "indexed": false,
          "internalType": "uint256",
          "name": "price",
          "type": "uint256"
        }
      ],
      "name": "ItemListed",
      "type": "event"
    },
    {
      "anonymous": false,
      "inputs": [
        {
          "indexed": true,
          "internalType": "uint256",
          "name": "listingId",
          "type": "uint256"
        },
        {
          "indexed": true,
          "internalType": "address",
          "name": "nftAddress",
          "type": "address"
        },
        {
          "indexed": true,
          "internalType": "uint256",
          "name": "tokenId",
          "type": "uint256"
        },
        {
          "indexed": false,
          "internalType": "address",
          "name": "seller",
          "type": "address"
        },
        {
          "indexed": false,
          "internalType": "address",
          "name": "buyer",
          "type": "address"
        },
        {
          "indexed": false,
          "internalType": "uint256",
          "name": "price",
          "type": "uint256"
        }
      ],
      "name": "ItemSold",
      "type": "event"
    },
    {
      "inputs": [],
      "name": "PLATFORM_FEE_PERCENT",
      "outputs": [
        {
          "internalType": "uint256",
          "name": "",
          "type": "uint256"
        }
      ],
      "stateMutability": "view",
      "type": "function"
    },
    {
      "inputs": [
        {
          "internalType": "address",
          "name": "",
          "type": "address"
        },
        {
          "internalType": "uint256",
          "name": "",
          "type": "uint256"
        }
      ],
      "name": "activeListings",
      "outputs": [
        {
          "internalType": "uint256",
          "name": "",
          "type": "uint256"
        }
      ],
      "stateMutability": "view",
      "type": "function"
    },
    {
      "inputs": [
        {
          "internalType": "uint256",
          "name": "listingId",
          "type": "uint256"
        }
      ],
      "name": "buyItem",
      "outputs": [],
      "stateMutability": "payable",
      "type": "function"
    },
    {
      "inputs": [],
      "name": "feeReceiver",
      "outputs": [
        {
          "internalType": "address",
          "name": "",
          "type": "address"
        }
      ],
      "stateMutability": "view",
      "type": "function"
    },
    {
      "inputs": [
        {
          "internalType": "address",
          "name": "nftAddress",
          "type": "address"
        },
        {
          "internalType": "uint256",
          "name": "tokenId",
          "type": "uint256"
        },
        {
          "internalType": "uint256",
          "name": "price",
          "type": "uint256"
        }
      ],
      "name": "listItem",
      "outputs": [],
      "stateMutability": "payable",
      "type": "function"
    },
    {
      "inputs": [],
      "name": "listingFee",
      "outputs": [
        {
          "internalType": "uint256",
          "name": "",
          "type": "uint256"
        }
      ],
      "stateMutability": "view",
      "type": "function"
    },
    {
      "inputs": [
        {
          "internalType": "uint256",
          "name": "",
          "type": "uint256"
        }
      ],
      "name": "listings",
      "outputs": [
        {
          "internalType": "uint256",
          "name": "listingId",
          "type": "uint256"
        },
        {
          "internalType": "address",
          "name": "nftAddress",
          "type": "address"
        },
        {
          "internalType": "uint256",
          "name": "tokenId",
          "type": "uint256"
        },
        {
          "internalType": "address payable",
          "name": "seller",
          "type": "address"
        },
        {
          "internalType": "uint256",
          "name": "price",
          "type": "uint256"
        },
        {
          "internalType": "bool",
          "name": "active",
          "type": "bool"
        }
      ],
      "stateMutability": "view",
      "type": "function"
    },
    {
      "inputs": [],
      "name": "owner",
      "outputs": [
        {
          "internalType": "address",
          "name": "",
          "type": "address"
        }
      ],
      "stateMutability": "view",
      "type": "function"
    }
  ],
  "bytecode": "0x608060405266038d7ea4c680005f55348015610019575f80fd5b50604051610a59380380610a5983398101604081905261003891610084565b600180546001600160a01b039384166001600160a01b031991821617909155600280549290931691161790556100b5565b80516001600160a01b038116811461007f575f80fd5b919050565b5f8060408385031215610095575f80fd5b61009e83610069565b91506100ac60208401610069565b90509250929050565b610997806100c25f395ff3fe608060405260043610610079575f3560e01c8063b3f006741161004c578063b3f0067414610104578063de74e57b14610123578063e7fb74c7146101bc578063f4b12508146101cf575f80fd5b8063560d52d41461007d5780636a1b7ecc146100a457806389bfd38f146100b85780638da5cb5b146100cd575b5f80fd5b348015610088575f80fd5b50610091600581565b6040519081526020015b60405180910390f35b3480156100af575f80fd5b506100915f5481565b6100cb6100c6366004610832565b610205565b005b3480156100d8575f80fd5b506001546100ec906001600160a01b031681565b6040516001600160a01b03909116815260200161009b565b34801561010f575f80fd5b506002546100ec906001600160a01b031681565b34801561012e575f80fd5b5061018161013d366004610864565b600460208190525f918252604090912080546001820154600283015460038401549484015460059094015492946001600160a01b0392831694919392169160ff1686565b604080519687526001600160a01b039586166020880152860193909352921660608401526080830191909152151560a082015260c00161009b565b6100cb6101ca366004610864565b61056e565b3480156101da575f80fd5b506100916101e936600461087b565b600560209081525f928352604080842090915290825290205481565b5f5434146102405760405162461bcd60e51b815260206004820152600360248201526246656560e81b60448201526064015b60405180910390fd5b5f81116102775760405162461bcd60e51b8152602060048201526005602482015264507269636560d81b6044820152606401610237565b6040516331a9108f60e11b81526004810183905233906001600160a01b03851690636352211e90602401602060405180830381865afa1580156102bc573d5f803e3d5ffd5b505050506040513d601f19601f820116820180604052508101906102e091906108a5565b6001600160a01b0316146103225760405162461bcd60e51b81526020600482015260096024820152682737ba1037bbb732b960b91b6044820152606401610237565b60405163e985e9c560e01b81523360048201523060248201526001600160a01b0384169063e985e9c590604401602060405180830381865afa15801561036a573d5f803e3d5ffd5b505050506040513d601f19601f8201168201806040525081019061038e91906108c7565b6103c95760405162461bcd60e51b815260206004820152600c60248201526b139bdd08185c1c1c9bdd995960a21b6044820152606401610237565b60038054905f6103d8836108fa565b9091555050600380546040805160c0810182528281526001600160a01b0387811660208084018281528486018a81523360608701908152608087018b8152600160a089018181525f8c815260048089528c82209b518c559651928b0180546001600160a01b0319908116948c1694909417905594516002808c019190915593519c8a0180549092169c89169c909c179055519287019290925597516005958601805460ff19169115159190911790559187529283528386208887529092528285208490559054915192939291169034908381818185875af1925050503d805f81146104de576040519150601f19603f3d011682016040523d82523d5f602084013e6104e3565b606091505b505090508061051f5760405162461bcd60e51b81526020600482015260086024820152671199594819985a5b60c21b6044820152606401610237565b604080513381526020810185905285916001600160a01b0388169185917ffc03b4e2884c77019bbed322825d5474a29f5a432ee06b79726bb2b5b707fae5910160405180910390a45050505050565b5f818152600460205260409020600581015460ff1680156105925750806004015434145b6105c85760405162461bcd60e51b8152602060048201526007602482015266125b9d985b1a5960ca1b6044820152606401610237565b6005808201805460ff1916905560018201546001600160a01b03165f908152602082815260408083206002860154845290915281208190559060649061060e9034610912565b610618919061092f565b90505f610625823461094e565b60038401546040519192505f916001600160a01b039091169083908381818185875af1925050503d805f8114610676576040519150601f19603f3d011682016040523d82523d5f602084013e61067b565b606091505b50509050806106b75760405162461bcd60e51b815260206004820152600860248201526714185e4819985a5b60c21b6044820152606401610237565b6002546040515f916001600160a01b03169085908381818185875af1925050503d805f8114610701576040519150601f19603f3d011682016040523d82523d5f602084013e610706565b606091505b50509050806107425760405162461bcd60e51b81526020600482015260086024820152671199594819985a5b60c21b6044820152606401610237565b600185015460038601546002870154604051632142170760e11b81526001600160a01b03928316600482015233602482015260448101919091529116906342842e0e906064015f604051808303815f87803b15801561079f575f80fd5b505af11580156107b1573d5f803e3d5ffd5b50505050600285015460018601546003870154604080516001600160a01b03928316815233602082015234818301529051919092169189917fda3037e3cf7786efa975ab8c48d5e5f239cb6dc1d00cee1abce948356555b97b9181900360600190a4505050505050565b6001600160a01b038116811461082f575f80fd5b50565b5f805f60608486031215610844575f80fd5b833561084f8161081b565b95602085013595506040909401359392505050565b5f60208284031215610874575f80fd5b5035919050565b5f806040838503121561088c575f80fd5b82356108978161081b565b946020939093013593505050565b5f602082840312156108b5575f80fd5b81516108c08161081b565b9392505050565b5f602082840312156108d7575f80fd5b815180151581146108c0575f80fd5b634e487b7160e01b5f52601160045260245ffd5b5f6001820161090b5761090b6108e6565b5060010190565b8082028115828204841417610929576109296108e6565b92915050565b5f8261094957634e487b7160e01b5f52601260045260245ffd5b500490565b81810381811115610929576109296108e656fea26469706673582212201bcf797fcc26b008b5f90f08b0bea94b17677d80065a87647594c320a8ec47c764736f6c63430008180033",
  "linkReferences": {},
  "deployedLinkReferences": {},
  "immutableReferences": {},
  "inputSourceName": "project/contracts/RitualTCGMarketplace.sol",
  "buildInfoId": "solc-0_8_24-ae1f0283f7344ea7ee3d940c724fb4725c66c1a8"
}